:100000000C9488000C94B0000C94B0000C94231A4B
:100010000C94B0000C94C4190C94B0000C94281DDE
:100020000C94461D0C94111D0C94FF1C0C94B000F4
:100030000C94B0000C94B0000C94B0000C94B00080
:100040000C943C290C94B0000C945E230C94AC23CB
:100050000C94B0000C94B0000C94B0000C94B00060
:100060000C94B0000C94B000084AD73B3BCE016E14
:1000700084BCBFFDC12F3D6C74319ABD56833DDAFF
:100080003D00C77F11BED9E4BB4C3E916BAAAABE0E
:10009000000000803F05A84CCDB2D44EB93836A937
:1000A000020C50B9918688083CA6AAAA2ABE000074
:1000B00000803F00000000240027002A000000000C
:1000C00000250028002B0000000000230026002946
:1000D00000040404040404040402020202020203F1
:1000E00003030303030102040810204080010204FB
:1000F000081020010204081020000000070002017F
:1001000000000304060000000000000000001825A5
:1001100011241FBECFEFD8E0DEBFCDBF15E0A0E0B9
:10012000B1E0ECE0FEE502C005900D92A233B1070C
:10013000D9F717E0A2E3B5E001C01D92A934B107D9
:10014000E1F711E0C0E1D1E004C02297FE010E9476
:10015000002FCE30D107C9F70E940E280C94042F2F
:100160000C940000BF92CF92DF92EF92FF920F9318
:100170001F937B018C01FB010995B82EC8010196E4
:10018000F7010995C82EC8010296F7010995D82EE6
:10019000C8010396F7010995982F6B2D7C2D8D2DA5
:1001A0001F910F91FF90EF90DF90CF90BF90089537
:1001B000DF92EF92FF920F931F937B018C01FB0163
:1001C0000995D82EC8010196F7010995982F8D2D14
:1001D0001F910F91FF90EF90DF900895BF92CF9203
:1001E000DF92EF92FF920F931F93D52EC62EB72E5C
:1001F00079018C01642FF9010995C80101966D2DD3
:10020000F7010995C80102966C2DF7010995C801FF
:1002100003966B2DF70109951F910F91FF90EF90B9
:10022000DF90CF90BF900895DF92EF92FF920F93EF
:100230001F93D72E7A018C01FA010995C801019606
:100240006D2DF70109951F910F91FF90EF90DF90B1
:100250000895AF92BF92CF92DF92EF92FF920F93E9
:100260001F93809132058D3030F48B3058F48A30F2
:1002700009F0C3C1E1C08D3009F460C18E3009F0CE
:10028000BCC194C02091ED053091EE054091EF0581
:100290005091F0058091E604A82EBB24CC24DD24E7
:1002A000A216B306C406D506ACF08091B0059091B5
:1002B000B105A091B205B091B30588529342A04018
:1002C000B0408093B0059093B105A093B205B09370
:1002D000B30593C190E0CC96AA2797FDA095BA2FBD
:1002E000281739074A075B070CF0A3C02C5330408E
:1002F000404050402A193B094C095D09CA01B90127
:100300000E94672C20E030E040E752EC0E94CC2BAA
:100310005B016C0120E030E040E050E00E94C52B22
:1003200088235CF40F2EF0E0AF2EF0E0BF2EF0E05B
:10033000CF2EF0E0DF2EF02D14C0C601B50120E075
:1003400030E040E85FE30E947E2D181654F40F2E33
:10035000F0E0AF2EF0E0BF2EF0E8CF2EFFE3DF2E6F
:10036000F02D6091B0057091B1058091B20590912A
:10037000B3050E94672C7B018C01C601B50120E00A
:1003800030EA4CE056EC0E94892D9B01AC01C8017B
:10039000B7010E94FF2A0E94342C6093B00570932D
:1003A000B1058093B2059093B30527C18091ED0507
:1003B0009091EE05A091EF05B091F0050197A1098C
:1003C000B1094E97A105B10500F581E08093DC05E8
:1003D0008091E2049091E304A091E404B091E504DB
:1003E0008F5F9F4FAF4FBF4F81F48091AC059091CD
:1003F000AD05A091AE05B091AF058093E204909356
:10040000E304A093E404B093E5048091E2049091A6
:10041000E304A091E404B091E504B7FD0AC0809321
:10042000B0059093B105A093B205B093B3050E94B7
:1004300091150E94CF17E1C0E090B405F090B5058A
:100440000091B6051091B7058091DD059091DE050C
:10045000A091DF05B091E005A8019701281B390B99
:100460004A0B5B0BCA01B90124E630E040E050E0E2
:100470000E94CF2EC9013093E2052093E105E0925E
:10048000DD05F092DE050093DF051093E0052B3AC1
:10049000310534F0885691409093E2058093E10550
:1004A0008091E1059091E2053FEF8635930734F4A2
:1004B00088599E4F9093E2058093E1058091E30572
:1004C0009091E4052091E1053091E205820F931FA0
:1004D0009093E4058093E3052091ED053091EE05BE
:1004E0004091EF055091F0051216130614061506FB
:1004F0000CF083C08091E10490E0A0E0B0E08217AE
:100500009307A407B507A4F40E94CF178091E305D1
:100510009091E40541E08D32940724F4845D9E4F70
:100520000CF06BC08CE197E060E071E00E94FB276B
:1005300081E00E9478150E9424235FC08091AA0563
:100540009091AB050497ECF08091E2049091E30464
:10055000A091E404B091E5048F5F9F4FAF4FBF4F70
:1005600081F48091AC059091AD05A091AE05B0915C
:10057000AF058093E2049093E304A093E404B09366
:10058000E5048091E2049091E304A091E404B09129
:10059000E504B7FD08C08093B0059093B105A09322
:1005A000B205B093B3058091FF0590910006A0912C
:1005B0000106B0910206845B924EAF4FBF4F20916F
:1005C0001706309118064091190650911A068217A5
:1005D0009307A407B5078CF481E08093DB058FEFC8
:1005E0009FEFAFEFBFEF8093E2049093E304A093FB
:1005F000E404B093E5040E946F150E9491161F91C8
:100600000F91FF90EF90DF90CF90BF90AF90089543
:10061000EF92FF920F931F9380913205863009F479
:1006200077C1873068F4813009F4F2C1813008F471
:1006300015C2823009F4DBC1853009F07DC2E5C006
:100640008D30F9F08E3020F48A3008F475C204C081
:100650008E3009F071C27BC08FEF9FEFAFEFBFEF1D
:100660008093E2049093E304A093E404B093E50440
:100670000E94BD0F0E94BB110E9449120E94D50F1B
:100680005BC20E94BB116091E7047091E804809105
:10069000AA059091AB050E949A2E882777FD809538
:1006A000982F0E94672C7B018C0120E030E040E015
:1006B00050E00E94C52B88235CF40F2EF0E0EF2E53
:1006C000F0E0FF2EF0E00F2FF0E01F2FF02D14C010
:1006D000C801B70120E030E040E050E40E947E2DE8
:1006E000181654F40F2EF0E0EF2EF0E0FF2EF0E09D
:1006F0000F2FF0E41F2FF02DC801B70120E030E0EC
:1007000040E751E40E94892D20E030E048E452E4C3
:100710000E94892D0E94342C6D3D25E0720720E057
:10072000820720E0920724F06CED75E080E090E015
:1007300097FF04C060E070E080E090E06093E9051E
:100740007093EA058093EB059093EC05F5C10E9448
:10075000BB110E9449120E94D50F2091ED053091E6
:10076000EE054091EF055091F005121613061406A0
:1007700015060CF0E1C18091DC058823A9F080E02A
:1007800090E0A0E0B0E08093450590934605A093EB
:100790004705B09348051092E8041092E7048CEDE9
:1007A00095E0A0E0B0E0ABC08091E10490E0A0E073
:1007B000B0E082179307A407B50724F081E0809387
:1007C000DC05BAC128323105410551052CF480E021
:1007D00090E0A0E0B0E00AC02C333105410551059E
:1007E0000CF0AAC180E090E0A0EAB1E48093450556
:1007F00090934605A0934705B093480584EF91E098
:100800009093E8048093E70497C16091630470912A
:1008100064042091350530913605621B730B8827DF
:1008200077FD8095982F20EA3FE040E050E00E945D
:100830006F2E2EE531E040E050E00E94CF2E122FC7
:10084000032FF42EE52E60916504709166042091CB
:10085000370530913805621B730B882777FD80952B
:10086000982F20ED37E040E050E00E946F2E2EE5FB
:1008700031E040E050E00E94CF2EB901FA01212F73
:10088000302F4F2D5E2DC901DA01813A3FE09307E9
:1008900030E0A30730E0B30724F080EA9FE0A0E057
:1008A000B0E0803620EF92072FEFA2072FEFB207BC
:1008B00024F480E690EFAFEFBFEF8093E5059093CF
:1008C000E605A093E705B093E805CB01DF01893B7E
:1008D0003BE0930730E0A30730E0B30724F088EB58
:1008E0009BE0A0E0B0E0883424EF92072FEFA2074E
:1008F0002FEFB20724F488E494EFAFEFBFEF8093BB
:10090000E9059093EA05A093EB05B093EC0514C1BB
:100910006091650470916604209137053091380527
:10092000621B730B882777FD8095982F20ED37E0A9
:1009300040E050E00E946F2E2EE531E040E050E0B4
:100940000E94CF2E122F032FF42EE52E6091630408
:10095000709164042091350530913605621B730B4C
:10096000882777FD8095982F20EA3FE040E050E00F
:100970000E946F2E2EE531E040E050E00E94CF2E25
:10098000C901DA01813A3FE0930730E0A30730E084
:10099000B30724F080EA9FE0A0E0B0E0803620EFCB
:1009A00092072FEFA2072FEFB20724F480E690EF13
:1009B000AFEFBFEF8093E5059093E605A093E705C1
:1009C000B093E8051093C6050093C705F092C805DB
:1009D000E092C9051092E9051092EA051092EB0524
:1009E0001092EC050E94D50F0E944912A5C01092EA
:1009F000E5051092E6051092E7051092E8051092C1
:100A0000E9051092EA051092EB051092EC0594C0EE
:100A100085E395E0A0E0B0E08093E5059093E605DE
:100A2000A093E705B093E8051092E9051092EA0556
:100A30001092EB051092EC0580913305813009F09E
:100A40007BC080E090E0ACE0B2E4809345059093F9
:100A50004605A0934705B09348056EC08091630496
:100A6000909164042091350530913605821B930BDB
:100A70000DE210E09C01209FC001219F900D309F4E
:100A8000900D112464EF71E00E949A2E882777FD63
:100A90008095982F0E94672C60933D0570933E05CA
:100AA00080933F0590934005809165049091660482
:100AB0002091370530913805821B930B9C01209FB4
:100AC000C001219F900D309F900D112464EF71E0C3
:100AD0000E949A2E882777FD8095982F0E94672C78
:100AE00060934105709342058093430590934405BC
:100AF0008091690490916A0420913B0530913C05F6
:100B0000821B930B9C01209FC001219F900D309F61
:100B1000900D112464EF71E00E949A2E882777FDD2
:100B20008095982F0E94672C6093490570934A0521
:100B300080934B0590934C0580913405882341F0B8
:100B40001092E5051092E6051092E7051092E8056F
:100B50008091E004833081F480913205873060F029
:100B600085E395E0A0E0B0E08093E5059093E6058D
:100B7000A093E705B093E8051F910F91FF90EF90C8
:100B8000089580919605882339F183E00E943E0CF8
:100B90008091DF048130C9F480910F069091100696
:100BA000A0911106B09112060097A105B10541F47C
:100BB0008CE197E06EE071E00E94FB2785E008C0C1
:100BC0000E94B7221092DF0405C0823018F08150D5
:100BD0008093DF040E94C706089580914D068130FE
:100BE00049F0813018F0823079F40CC081E08093B4
:100BF0004D06089582E080934D060E9454150E9490
:100C00000D1F089510924D06089580914C06823074
:100C1000C9F1833030F4882349F0813009F043C0B2
:100C20002BC0833099F18430F1F537C081E0809397
:100C30004C060E942620209148063091490640919A
:100C40004A0650914B06621B730B840B950B609305
:100C500052067093530680935406909355060E9453
:100C60002620609348067093490680934A06909325
:100C70004B060E94C105089582E080934C060E94B5
:100C80007718089583E080934C06089584E080935C
:100C90004C0682E00E943E0C089510924C060E9481
:100CA00077150E94ED0508950E94C1180E94C80D95
:100CB0000E94DE150E9491150E9408038091320562
:100CC000882311F00E9484120E94BA1C809156065B
:100CD00090915706892B19F086E00E943E0C0895EA
:100CE0000E942620209144063091450640914606F8
:100CF00050914706621B730B840B950B6431710591
:100D00008105910530F10E94262020914406309102
:100D100045064091460650914706621B730B840BB3
:100D2000950B60934E0670934F06809350069093F8
:100D300051060E94262060934406709345068093D6
:100D40004606909347060E9454060E9405060E949C
:100D5000761508950E949C1F08959C01F999FECF75
:100D600032BD21BDF89A80B508959C01F999FECF56
:100D70001FBA32BD21BD60BD0FB6F894FA9AF99A38
:100D80000FBE089545EB56E00E94140108950E949D
:100D9000C4162091D8053091D9052817390784F455
:100DA0000E94C4169093D9058093D805F999FECF77
:100DB00064E670E00E949A2E85E090E00E94C206F0
:100DC0002091AA053091AB058091DA0590E0821759
:100DD000930774F4822F2093DA05F999FECF64E625
:100DE0000E948E2E682F87E090E070E00E94C2067D
:100DF0000895F999FECF2091F605F999FECF1FBA13
:100E00008AE090E092BD81BD20BD0FB6F894FA9AB9
:100E1000F99A0FBEF999FECF6091CE057091CF057A
:100E200081E090E00E94C206F999FECF6091ED0446
:100E30007091EE0482EA93E00E94C206F999FECF17
:100E400060915304709154048EE893E00E94C206AE
:100E5000F999FECF609155047091560480E993E0B2
:100E60000E94C206F999FECF6091590470915A040C
:100E700084E993E00E94C206F999FECF609135059E
:100E80007091360586E893E00E94C206F999FECF7C
:100E9000609137057091380588E893E00E94C2069A
:100EA000F999FECF60913B0570913C058CE893E089
:100EB0000E94C206F999FECF60915B0470915C04B8
:100EC00086E993E00E94C206F999FECF60915D0425
:100ED00070915E0488E993E00E94C206F999FECF02
:100EE00060916104709162048CE993E00E94C206F3
:100EF000F999FECF60917304709174048EE993E0C8
:100F00000E94C206F999FECF609175047091760433
:100F100080EA93E00E94C2060895DF92EF92FF926A
:100F20000F931F93DF93CF93CDB7DEB72C970FB6F8
:100F3000F894DEBF0FBECDBFF999FECFF999FECF71
:100F400089E090E092BD81BDF89A10B51093F50547
:100F5000F999FECFF999FECF8AE090E092BD81BD6C
:100F6000F89AF0B4F092F605F999FECFF999FECF10
:100F70008BE090E092BD81BDF89A00B50093E1044A
:100F8000F999FECF81E090E06DEA76E00E94D8000A
:100F9000E82ED92E8093CE059093CF05F999FECFF8
:100FA00082EA93E06DEA76E00E94D800AC01F999FC
:100FB000FECF8F2D1F1508F4812F8093F6050A3080
:100FC00010F48AE004C0802F033308F082E380939A
:100FD000E1048E2D9D2D9C0182E02130380714F014
:100FE00020E032E037FF02C020E030E03093CF0550
:100FF0002093CE05483251051CF488E290E007C0EA
:10100000CA0122E04130520714F080E092E0909350
:10101000EE048093ED04809153049091540423E0F6
:10102000803292071CF480E293E006C028E0893900
:10103000920714F088E998E0909354048093530445
:10104000809155049091560423E0803292071CF45D
:1010500080E293E006C028E08939920714F088E91D
:1010600098E0909356048093550428E089399207BC
:1010700014F088E998E090935A0480935904809181
:1010800035059091360523E0803292071CF480E20A
:1010900093E006C028E08939920714F088E998E0C7
:1010A00090933605809335058091370590913805EA
:1010B00023E0803292071CF480E293E006C028E02F
:1010C0008939920714F088E998E090933805809365
:1010D000370580913B0590913C0523E080329207D3
:1010E0001CF480E293E006C028E08939920714F0EE
:1010F00088E998E090933C0580933B0580915B04E0
:1011000090915C0423E0803292071CF480E293E02B
:1011100006C028E08939920714F088E998E0909396
:101120005C0480935B0480915D0490915E0423E0F5
:10113000803292071CF480E293E006C028E08939EF
:10114000920714F088E998E090935E0480935D0420
:1011500028E08939920714F088E998E090936204B6
:1011600080936104809173049091740423E0863B22
:1011700092071CF486EB93E006C028E083309207C8
:1011800014F082E098E0909374048093730480914B
:1011900075049091760423E0863B92071CF486EB5D
:1011A00093E006C028E08330920714F082E098E0D4
:1011B00090937604809375048E010F5F1F4FC801D2
:1011C00060E070E00E944E20A7EFB5E0F8018CE0EF
:1011D00001900D928150E1F70E941B222C960FB6D0
:1011E000F894DEBF0FBECDBFCF91DF911F910F915D
:1011F000FF90EF90DF90089508950F931F930CE1F7
:1012000017E0C80169E171E00E941127C8016DE192
:1012100071E00E9411274091BE055091BF05609179
:10122000C0057091C105C8012AE030E00E94F8278E
:10123000C80162E271E00E9411274091450550917A
:1012400046056091470570914805C8012AE030E0E5
:101250000E94F827C80168E271E00E94112760919E
:10126000D0057091D1058091D2059091D30524E6E7
:1012700030E040E050E00E94CF2EC801BA01A90141
:101280002AE030E00E948B26C8016EE271E00E94E5
:1012900011276091D4057091D5058091D605909164
:1012A000D70524E630E040E050E00E94CF2EC80190
:1012B000BA01A9012AE030E00E948B26C80164E34C
:1012C00071E00E9411276091AC057091AD0580918D
:1012D000AE059091AF0524E630E040E050E00E947A
:1012E000CF2EC801BA01A9012AE030E00E948B2666
:1012F000C8016AE371E00E941127C80160913306BA
:101300004AE050E00E945B26C80160E471E00E9460
:1013100011276091670470916804C8014AE050E0A9
:101320000E94DF26C80166E471E00E94FB271F913E
:101330000F9108950F931F930CE117E0C8016BE420
:1013400071E00E941127C8016FE471E00E9411272B
:1013500040912F065091300660913106709132060F
:10136000C8012AE030E00E948B26C80164E571E0E4
:101370000E9411276091560670915706C8014AE0F5
:1013800050E00E94DF26C8016AE571E00E94112743
:101390006091340670913506C8014AE050E00E9421
:1013A000DF26C80160E671E00E941127C801609144
:1013B00036064AE050E00E945B26C80166E671E00E
:1013C0000E941127C801609137064AE050E00E9450
:1013D0005B26C8016CE671E00E941127C80160918C
:1013E00038064AE050E00E945B26C80162E771E0DF
:1013F0000E941127C801609139064AE050E00E941E
:101400005B26C80168E771E00E941127C80160915E
:101410003A064AE050E00E945B26C8016EE771E0A0
:101420000E941127C80160913B064AE050E00E94EB
:101430005B26C80164E871E00E941127C801609131
:101440003C064AE050E00E945B26C8016AE871E071
:101450000E941127C80160913D064AE050E00E94B9
:101460005B26C80160E971E00E941127C801609104
:101470003E064AE050E00E945B26C80166E971E042
:101480000E941127C80160913F064AE050E00E9487
:101490005B26C8016CE971E00E94112780913E062D
:1014A0006091560670915706681B7109C8014AE0A1
:1014B00050E00E94DF26C80162EA71E00E94112715
:1014C0006091400670914106C8014AE050E00E94D8
:1014D000DF26C80168EA71E00E941127C801609107
:1014E00042064AE050E00E945B26C8016EEA71E0C5
:1014F0000E941127C801609143064AE050E00E9413
:101500005B26C80164EB71E00E94112740919705AA
:10151000509198056091990570919A05C8012AE04B
:1015200030E00E948B26C80166E471E00E94FB2730
:1015300010923F0610924106109240061092420609
:101540001092430610925706109256061F910F9163
:1015500008950F931F930CE117E0C8016AEB71E047
:101560000E941127C8016EEB71E00E941127609163
:101570000F067091100680911106909112062AE0D4
:1015800030E040E050E00E94CF2EC801BA01A9012E
:101590002AE030E00E948B26C80163EC71E00E94D3
:1015A0001127609113067091140680911506909191
:1015B00016062AE030E040E050E00E94CF2EC8013D
:1015C000BA01A9012AE030E00E948B26C80169EC2B
:1015D00071E00E9411278091AA059091AB0564E605
:1015E00070E00E949A2EC8014AE050E00E94DF2677
:1015F000C8016FEC71E00E9411276091BC057091E9
:10160000BD05C8014AE050E00E94DF26C80165ED33
:1016100071E00E9411276091170670911806809161
:10162000190690911A0624E630E040E050E00E944E
:10163000CF2EC801BA01A9012AE030E00E948B2612
:10164000C8016BED71E00E94112760912306709133
:101650002406809125069091260624E630E040E09D
:1016600050E00E94CF2EC801BA01A9012AE030E063
:101670000E948B26C80164E371E00E9411276091EB
:10168000AC057091AD058091AE059091AF0524E653
:1016900030E040E050E00E94CF2EC801BA01A9011D
:1016A0002AE030E00E948B26C80161EE71E00E94C2
:1016B00011276091B4057091B5058091B6059091A0
:1016C000B70524E630E040E050E00E94CF2EC8018C
:1016D000BA01A9012AE030E00E948B26C80167EE1A
:1016E00071E00E941127C8016091F6054AE050E0C0
:1016F0000E945B26C8016DEE71E00E9411274091A7
:10170000ED055091EE056091EF057091F005C8016F
:101710002AE030E00E948B26C80163EF71E00E944E
:1017200011274091E9045091EA046091EB04709113
:10173000EC04C8012AE030E00E94F827C80169EFF4
:1017400071E00E94112760913D0570913E058091E6
:101750003F059091400520E030E048EC52E40E94C3
:10176000CC2BAB01BC01C8012AE030E00E94F82775
:10177000C80164EB71E00E941127409197055091D8
:1017800098056091990570919A05C8012AE030E0AA
:101790000E948B26C80166E471E00E94FB271F911E
:1017A0000F91089580913205863071F1873050F4A1
:1017B000813001F18130A0F08230B9F0853009F03C
:1017C00044C01DC08C3079F18D3028F48A3009F185
:1017D0008B30D9F523C08D3059F18E30B1F52FC043
:1017E0008CE197E06FEF71E027C08CE197E06EE04D
:1017F00072E022C08CE197E060E272E01DC08CE1F3
:1018000097E06FE272E018C08CE197E06DE372E060
:1018100013C08CE197E06BE472E00EC08CE197E0BE
:1018200068E572E009C08CE197E064E672E004C00C
:101830008CE197E063E772E00E94FB2708958CE15A
:1018400097E06FE772E00E94FB270895823051F025
:10185000833018F4813089F40BC0833031F0863046
:1018600061F409C00E94FD0808950E94A90A089524
:101870000E94D20B08950E949A09089540E050E01A
:1018800060E070E00E94260C089581E08093E004FF
:1018900008958091400690914106019690934106EB
:1018A00080934006809158068093A4058091590644
:1018B0008093A5058091A4059091A505AA2797FD81
:1018C000A095BA2F8093D0059093D105A093D2050F
:1018D000B093D30580915A068093A40580915B064E
:1018E0008093A5058091A4059091A505AA2797FD51
:1018F000A095BA2F8093D4059093D505A093D605D3
:10190000B093D70580915C068093A40580915D0615
:101910008093A5058091A4059091A505A0E0B0E075
:101920008093AC059093AD05A093AE05B093AF0541
:1019300080915E068093A40580915F068093A50543
:101940006091A4057091A505882777FD8095982F53
:101950000E94672C6093BE057093BF058093C005FD
:101960009093C10581E080939B05089580913F0687
:101970008F5F80933F06809158068093A6058091E3
:1019800059068093A70580915A068093A8058091F7
:101990005B068093A9058091A6059091A705A0916B
:1019A000A805B091A9058093130690931406A093FF
:1019B0001506B093160680915C068093A60580916B
:1019C0005D068093A70580915E068093A8058091AF
:1019D0005F068093A9058091A6059091A705A09127
:1019E000A805B091A90580930F0690931006A093C7
:1019F0001106B0931206809160068093A405809131
:101A000061068093A5056091A4057091A5058827BE
:101A100077FD8095982F2AE030E040E050E00E946A
:101A20006F2E609317067093180680931906909393
:101A30001A06809162068093A405809163068093C4
:101A4000A5056091A4057091A505882777FD80956F
:101A5000982F0E94672C0E94342C7093AB056093E2
:101A6000AA05809166068093A605809167068093FB
:101A7000A705809168068093A805809169068093E8
:101A8000A9058091A6059091A705A091A805B09100
:101A9000A9058093970590939805A0939905B09315
:101AA0009A0580916A068093330681E080939605BB
:101AB0001092E0040895809158068093A6058091C5
:101AC00059068093A70580915A068093A8058091B6
:101AD0005B068093A9058091A6059091A705A0912A
:101AE000A805B091A90580932F0690933006A09386
:101AF0003106B093320680915C068093A4058091F4
:101B00005D068093A5058091A4059091A50590930D
:101B100057068093560680915E068093A4058091B7
:101B20005F068093A5056091A4057091A50588279F
:101B300077FD8095982F0E94672C0E94342C70931B
:101B40003506609334068091600680933606809156
:101B500061068093370680916206809338068091F3
:101B60006306809339068091640680933A068091DB
:101B7000650680933B068091660680933C068091C3
:101B8000670680933D068091680680933E0608951F
:101B90007F928F929F92AF92BF92CF92DF92EF92FD
:101BA000FF920F931F93CF93DF938CE197E00E94F6
:101BB0006E247C01181619060CF082C1C0E0D0E03A
:101BC00065E0A62E57E0952E46E0842E38E0732E71
:101BD00001E022E0D22E93E0C92E84E0B82E8CE101
:101BE00097E00E949F24182F80917D06843009F48D
:101BF00049C0853050F48130D9F0813098F082307E
:101C0000E1F0833009F057C122C0863009F47CC06E
:101C1000863008F46AC0873009F492C0883009F031
:101C20004AC193C0143409F046C100937D0643C1F4
:101C3000193429F5D0927D063EC1193519F4C092A8
:101C40007D0639C18CE197E069E872E016C0143670
:101C500019F4B0927D062FC18CE197E060EA72E042
:101C60000E9411278CE197E0612F4AE050E00E942A
:101C70005B268CE197E063EC72E00E94FB271092F8
:101C80007D0619C11093760690917806910F909376
:101C9000780680917906890F80937906A0927D0657
:101CA0001D3108F408C110927D061092770610923B
:101CB000780610927906809142068F5F80934206E3
:101CC0008CE197E063ED72E00E9411278CE197E0D0
:101CD000609176064AE050E00E945B268CE197E036
:101CE00063EF72E00E94FB27E6C010937C069091A0
:101CF0007806910F9093780680917906890F8093EA
:101D0000790680927D06D7C020917706E22FF0E019
:101D1000E85AF94F108390917806910F90937806C6
:101D200080917906890F809379062F5F209377063B
:101D300080917606281708F4BEC090927D06BBC03D
:101D400010937A0670927D06B6C010937B06909130
:101D5000780680917A06981709F090C080917906EC
:101D6000811709F08BC080917C06823009F054C045
:101D70008091400690914106019690934106809390
:101D80004006809158068093A4058091590680935F
:101D9000A5058091A4059091A505AA2797FDA0957A
:101DA000BA2F8093D0059093D105A093D205B0931C
:101DB000D30580915A068093A40580915B06809399
:101DC000A5058091A4059091A505AA2797FDA0954A
:101DD000BA2F8093D4059093D505A093D605B093E0
:101DE000D70580915C068093A40580915D06809361
:101DF000A5058091A4059091A505AA2797FDA0951A
:101E0000BA2F8093AC059093AD05A093AE05B09327
:101E1000AF0500939B0513C0833069F40E94B60C94
:101E20000E94262060937E0670937F068093800632
:101E3000909381062EC0843069F40E94490C0E9460
:101E40002620609382067093830680938406909385
:101E500085061FC08A3019F40E945B0D1AC08CE100
:101E600097E06FE073E00E9411278CE197E06091AA
:101E70007C064AE050E00E946D260BC08CE197E0A2
:101E800069E273E00E94FB27809143068F5F809395
:101E9000430610927D0610927706109278061092F3
:101EA00079060E94262060938206709383068093B1
:101EB0008406909385062196CE15DF050CF48FCE0F
:101EC0000E9426202091820630918306409184064C
:101ED00050918506621B730B840B950B655F7140F7
:101EE0008040904010F010929B050E942620209187
:101EF0007E0630917F064091800650918106621BDC
:101F0000730B840B950B615D77408040904038F1F6
:101F10008091E004833019F081E08093E0040E9416
:101F2000262020917E0630917F06409180065091B8
:101F30008106621B730B840B950B615177428040C5
:101F4000904068F083E08093E0040E942620609334
:101F50007E0670937F068093800690938106DF91C2
:101F6000CF911F910F91FF90EF90DF90CF90BF9096
:101F7000AF909F908F907F9008958091D40590911D
:101F8000D505A091D605B091D7058C569E4EAF4F82
:101F9000BF4F1CF48FEF8093340580913405882364
:101FA00019F08150809334050895AF92BF92CF927B
:101FB000DF92EF92FF920F931F93CF93DF932091C5
:101FC000E9053091EA054091EB055091EC05C0918F
:101FD000EF04D091F00457FD1AC06CE370E06C1B65
:101FE0007D0B882777FD8095982F0E946F2E2CED12
:101FF00035E040E050E00E94CF2EBE01882777FDFB
:102000008095982F620F731F841F951F15C07E0146
:102010000027F7FC0095102FC801B7010E946F2E12
:1020200020ED37E040E050E00E94CF2EE20EF31E9C
:10203000041F151FC801B7010E94672C6093450556
:10204000709346058093470590934805A0904505F9
:10205000B0904605C0904705D0904805C601B5012F
:1020600020E030E040E050E00E947E2D181654F051
:102070000F2EF0E0AF2EF0E0BF2EF0E0CF2EF0E01C
:10208000DF2EF02D6091AA057091AB05882777FDB2
:102090008095982F0E94672C7B018C016091E7044A
:1020A0007091E804882777FD8095982F0E94672C0F
:1020B0009B01AC01C801B7010E94CC2B9B01AC0174
:1020C00060E070E080E89FE30E94FE2A20E030E0BC
:1020D00040EF51E40E94892D0E94342C9B0177FF30
:1020E00002C020E030E0B901882777FD8095982F65
:1020F0000E94672C9B01AC01C601B5010E94FF2A1A
:102100007B018C0120E030E040E050E00E94C52BD4
:1021100088235CF40F2EF0E0EF2EF0E0FF2EF0E0CD
:102120000F2FF0E01F2FF02D14C0C801B70120E0E1
:1021300030E040E752E40E947E2D181654F40F2E32
:10214000F0E0EF2EF0E0FF2EF0E70F2FF2E41F2F6C
:10215000F02DE0924505F092460500934705109357
:102160004805DF91CF911F910F91FF90EF90DF9085
:10217000CF90BF90AF9008952F923F924F925F9271
:102180006F927F928F929F92AF92BF92CF92DF9287
:10219000EF92FF920F931F93DF93CF93CDB7DEB7EC
:1021A00060970FB6F894DEBF0FBECDBF59016A012C
:1021B00018010E94672C6D877E878F87988B000F90
:1021C000111F000F111F25E7E22E25E0F22EE00E71
:1021D000F11ED7018D919D910D90BC91A02D898705
:1021E0009A87AB87BC87C601B5010E94672C6D83B7
:1021F0007E838F8398878D859E85AF85B889F7010B
:1022000080839183A283B383980125583B4FD901E2
:102210008D919D910D90BC91A02D89839A83AB8364
:10222000BC8395E5E92E95E0F92EE00EF11E6D8553
:102230007E858F8598892D813E814F8158850E94AA
:10224000892D20E030E04AE754E40E94CC2BF701CE
:1022500020813181428153810E94FF2A6B017C01E0
:1022600003501B4FD8018D909D90AD90BC902401E0
:10227000350177FA709477F87094A30192010E9467
:10228000C52B88231CF4530142010AC0C701B601C3
:10229000A50194010E947E2D181614F046015701E5
:1022A0006101CC0CDD1CCC0CDD1CF601EB5AFA4FA5
:1022B00080829182A282B38269817A818B819C81A2
:1022C0002D853E854F8558890E94892D7B018C0183
:1022D000F601E556FB4FC501B401208131814281F1
:1022E00053810E94892D9B01AC01C801B7010E9456
:1022F000FF2A7B018C016D857E858F8598892985D4
:102300003A854B855C850E94FE2A20E030E04AE752
:1023100054E40E94892D2D813E814F8158850E9471
:10232000CC2BEBEBF4E0CE0EDF1ED6012D913D91D0
:102330004D915C910E94892D9B01AC01C801B701B0
:102340000E94FF2A60960FB6F894DEBF0FBECDBF85
:10235000CF91DF911F910F91FF90EF90DF90CF9081
:10236000BF90AF909F908F907F906F905F904F90B5
:102370003F902F900895EF92FF920F931F936091DB
:10238000AA057091AB05882777FD8095982F0E944C
:10239000672C20E030E842EA54E40E94CC2B7B0119
:1023A0008C012DEC3CEC4CE45EE30E94C52B8823B1
:1023B0005CF40F2EFDECEF2EFCECFF2EFCE40F2F57
:1023C000FEE31F2FF02D14C0C801B70120E030E05C
:1023D00040E85FE30E947E2D181654F40F2EF0E0C3
:1023E000EF2EF0E0FF2EF0E80F2FFFE31F2FF02D70
:1023F000E092DB04F092DC040093DD041093DE0431
:102400006091C2057091C3058091C4059091C50586
:102410002091520630915306409154065091550632
:1024200003E010E00E94BC100E94342C613A2FE0BF
:10243000720720E0820720E0920724F060EA7FE044
:1024400080E090E0603620EF72072FEF82072FEFD9
:10245000920724F460E670EF8FEF9FEF0E94672CE5
:102460002091DB043091DC044091DD045091DE04C6
:102470000E94892D0E94342C6093E5057093E60537
:102480008093E7059093E8051F910F91FF90EF90DF
:1024900008950F931F936091C6057091C7058091B1
:1024A000C8059091C905209152063091530640917C
:1024B00054065091550605E010E00E94BC100E94A1
:1024C000342C6D3D25E0720720E0820720E0920762
:1024D00024F06CED75E080E090E0603328EF720747
:1024E0002FEF82072FEF920724F460E378EF8FEF4E
:1024F0009FEF6093E9057093EA058093EB05909355
:10250000EC051F910F9108952F923F924F925F9289
:102510006F927F928F929F92AF92BF92CF92DF92F3
:10252000EF92FF920F931F93DF93CF93CDB7DEB758
:1025300028970FB6F894DEBF0FBECDBF809134054B
:10254000882341F01092E5051092E6051092E70508
:102550001092E8056091E5057091E6058091E70528
:102560009091E8052091D0053091D1054091D20598
:102570005091D305621B730B840B950B20914E0673
:1025800030914F06409150065091510600E010E006
:102590000E94BC1060933D0570933E0580933F05FB
:1025A00090934005A090E905B090EA05C090EB0536
:1025B000D090EC056091D0057091D1058091D20545
:1025C0009091D3050E94672C3B014C012DEC3CEC13
:1025D0004CE45EE30E94892D7B018C0120E030E019
:1025E00040E050E00E947E2D181654F0C401B30163
:1025F0002DEC3CEC4CE45EEB0E94892D7B018C01C0
:10260000C601B5010E94672CA80197010E94FF2A0C
:102610007B018C016091D4057091D5058091D60520
:102620009091D7050E94672C9B01AC01C801B701AE
:102630000E94FE2A0E94342C20914E0630914F06B3
:10264000409150065091510601E010E00E94BC10EC
:102650006B837C838D839E836093410570934205D9
:1026600080934305909344058091320585508230D4
:1026700008F407C14090630450906404209135052C
:10268000309136053A832983B201882777FD8095FA
:10269000982F0E94672C7B018C01A981BA81BD0112
:1026A000882777FD8095982F0E94672C9B01AC01AD
:1026B000C801B7010E94FE2A3B014C0120E030E036
:1026C00040E050E00E947E2D181624F097FA909476
:1026D00097F89094C401B30120E030E048EC53E453
:1026E0000E94C52B87FD0AC00F2EF0E06F2EF0E090
:1026F0007F2EF8EC8F2EF3E49F2EF02DE0916504F1
:10270000F0916604F887EF83209037053090380504
:10271000BF01882777FD8095982F0E94672C7B0149
:102720008C01B101882777FD8095982F0E94672C36
:102730009B01AC01C801B7010E94FE2A7B018C01FC
:1027400020E030E040E050E00E947E2D181624F09A
:1027500017FB109517F91095C801B70120E030E07C
:1027600048EC53E40E94C52B87FD0AC00F2EF0E011
:10277000EF2EF0E0FF2EF8EC0F2FF3E41F2FF02DDB
:1027800060E070E088EC93E4A80197010E94FE2AC3
:102790005B016C0160E070E088EC93E4A4019301BC
:1027A0000E94FE2A20E030E048EC53E40E94CC2B4B
:1027B00020913D0530913E0540913F0550914005E7
:1027C0000E94892D7B018C0129813A81421A530A8A
:1027D000B201882777FD8095982F0E94672C20E012
:1027E00030E044E352E40E94892D20E030E04AEFDB
:1027F00053E40E94CC2B9B01AC01C801B7010E949D
:10280000FF2A60933D0570933E0580933F059093AA
:102810004005C601B50120E030E048EC53E40E94D9
:10282000CC2B9B01AC016B817C818D819E810E94B0
:10283000892D7B018C018F81988582199309DC0198
:10284000BD01882777FD8095982F0E94672C20E096
:1028500030E044E352E40E94892D20E030E04AEF6A
:1028600053E40E94CC2B9B01AC01C801B7010E942C
:10287000FF2A60934105709342058093430590932E
:1028800044058090690490906A0460903B057090C4
:102890003C05B401882777FD8095982F0E94672C0E
:1028A0007B018C01B301882777FD8095982F0E94CA
:1028B000672C9B01AC01C801B7010E94FE2A7B0175
:1028C0008C0120E030E040E050E00E947E2D1816A0
:1028D00024F017FB109517F91095C801B70120E0F7
:1028E00030E048EC53E40E94C52B87FD0AC00F2E50
:1028F000F0E0EF2EF0E0FF2EF8EC0F2FF3E41F2FA7
:10290000F02D60E070E088EC93E4A80197010E944C
:10291000FE2A7B018C0160913D0570913E058091FE
:102920003F05909140052DEC3CEC4CE45EE30E94A9
:10293000892D5B016C01C801B70120E030E048EC53
:1029400053E40E94CC2B9B01AC01C601B5010E944F
:10295000892D7B018C01861897088DE290E0FC019F
:102960008E9EC0018F9E900D9E9E900D112464EF4F
:1029700071E00E949A2E882777FD8095982F0E94FB
:10298000672C9B01AC01C801B7010E94FF2A60932C
:10299000490570934A0580934B0590934C05289602
:1029A0000FB6F894DEBF0FBECDBFCF91DF911F9160
:1029B0000F91FF90EF90DF90CF90BF90AF909F90DE
:1029C0008F907F906F905F904F903F902F900895E1
:1029D00080E090E0A0E0B0E0809361059093620514
:1029E000A0936305B0936405809365059093660595
:1029F000A0936705B09368058093690590936A0575
:102A0000A0936B05B0936C0580936D0590936E0554
:102A1000A0936F05B0937005809371059093720534
:102A2000A0937305B09374058093810590938205FC
:102A3000A0938305B09384058093850590938605C4
:102A4000A0938705B09388058093890590938A05A4
:102A5000A0938B05B0938C0580938D0590938E0584
:102A6000A0938F05B0939005809391059093920564
:102A7000A0939305B0939405089584E00E94AB2A37
:102A8000019711F081E0089585E00E94AB2A01973B
:102A900011F083E0089582E008950E943D1580932F
:102AA00086068093870608951F930E943D15182F70
:102AB00080918706811789F0123031F0133031F0A0
:102AC000113039F480E003C082E001C085E00E944B
:102AD000321F109387060E94E8141F9108951092E8
:102AE00087060E945415089508950895089508953D
:102AF000813019F08330A1F40FC08CE197E069E4D4
:102B000073E00E9411278CE197E06091F6054AE09E
:102B100050E00E946D2608950E94FC080E94E8146F
:102B200008952091B0053091B1054091B2055091C2
:102B3000B3058091AC059091AD05A091AE05B09123
:102B4000AF05281B390B4A0B5B0B2093C205309352
:102B5000C3054093C4055093C505213586E4380765
:102B600080E0480780E0580764F0205A3C48404025
:102B700050402093C2053093C3054093C405509341
:102B8000C5058091C2059091C305A091C405B0917F
:102B9000C505803B29EB92072FEFA2072FEFB20765
:102BA00064F480569347AF4FBF4F8093C205909314
:102BB000C305A093C405B093C50508956F927F9295
:102BC0008F929F92AF92BF92CF92DF92EF92FF923D
:102BD0000F931F9360902306709024068090250623
:102BE00090902606C401B3010E94672C5B016C0122
:102BF0006091ED057091EE058091EF059091F005E3
:102C0000645170408040904020912B0630912C06FA
:102C100040912D0650912E060E946F2E0E94672C27
:102C20007B018C016091F1057091F2058091F305B3
:102C30009091F40564517040804090400E94672C50
:102C40009B01AC01C801B7010E94CC2B9B01AC01D8
:102C5000C601B5010E94FE2A0E94342C20910B0669
:102C600030910C0640910D0650910E0662167306C7
:102C700084069506BCF466157705880599054CF021
:102C80003B014C01261737074807590714F439014F
:102C90004A01609227067092280680922906909237
:102CA0002A0616C062177307840795074CF09B012C
:102CB000AC01661677068806990614F4A401930100
:102CC00020932706309328064093290650932A061E
:102CD0008091270690912806A0912906B0912A0696
:102CE00020911706309118064091190650911A0646
:102CF000821B930BA40BB50B8093C6059093C7055D
:102D0000A093C805B093C9051F910F91FF90EF9054
:102D1000DF90CF90BF90AF909F908F907F906F90FB
:102D200008958091B0059091B105A091B205B09140
:102D3000B305813A2CE8920720E0A20720E0B20711
:102D400064F0805A9C48A040B0408093B0059093B6
:102D5000B105A093B205B093B3058091B0059091F1
:102D6000B105A091B205B091B305B7FF0CC0805674
:102D70009347AF4FBF4F8093B0059093B105A09399
:102D8000B205B093B3050895209117063091180647
:102D90008091FF0590910006281B390BC901089509
:102DA000AF92BF92CF92DF92EF92FF920F931F9359
:102DB0005C016B01FB016081718182819381F5016E
:102DC0002081318142815381621B730B840B950BEF
:102DD0000E94672C20919C0530919D0540919E0595
:102DE00050919F050E94892D0E94342C90958095CA
:102DF000709561957F4F8F4F9F4F0E94672C7B018D
:102E00008C01F6016481758186819781F5012481A9
:102E1000358146815781621B730B840B950B0E9491
:102E2000672C9B01AC01C801B7010E94722B20EAFC
:102E30003CE043EB55E40E94892D20E030EA4CE071
:102E400056E40E94FF2A0E94342C9B01AC0197FF9C
:102E500004C0205633474F4F5F4FB901CA011F913D
:102E60000F91FF90EF90DF90CF90BF90AF900895BB
:102E70008FE096E06BE176E00E94D0166093B80593
:102E80007093B9058093BA059093BB0508956F922E
:102E90007F928F929F92AF92BF92CF92DF92EF92EA
:102EA000FF920F931F93FC01DB012081318142814E
:102EB0005381211531054105510509F45DC0648038
:102EC000758086809780611471048104910409F4EF
:102ED00053C06D917D918D919C91139761157105F2
:102EE0008105910509F448C01496ED90FD900D916F
:102EF0001C911797E114F10401051105E9F1621B1A
:102F0000730B840B950B0E94672C5B016C01E61818
:102F1000F70808091909C801B7010E94672C209118
:102F2000A0053091A1054091A2055091A3050E94F2
:102F3000892D7B018C01C601B501A60195010E9476
:102F4000892D5B016C01C801B701A80197010E949E
:102F5000892D9B01AC01C601B5010E94FF2A0E9488
:102F6000F62D28EC32E646E35CE30E94892D0E94B0
:102F7000342C9B01AC0104C02FEF3FEF4FEF5FEF0C
:102F8000B901CA011F910F91FF90EF90DF90CF9090
:102F9000BF90AF909F908F907F906F900895AF9269
:102FA000BF92CF92DF92EF92FF920F931F932091E7
:102FB000B4053091B5054091B6055091B7058091A3
:102FC000B8059091B905A091BA05B091BB05281B31
:102FD000390B4A0B5B0BDA01C9018D569E4EAF4F80
:102FE000BF4F87529342A040B04008F077C0CA015B
:102FF000B90124E630E040E050E00E94CF2ECA0143
:10300000B9010E94672C25E33AEF4EE85CE30E9489
:10301000892D0E94EC2D7B018C016091ED05709152
:10302000EE058091EF059091F0050E94672C9B01C1
:10303000AC01C801B7010E94892D6093CA05709345
:10304000CB058093CC059093CD05A090B005B090B2
:10305000B105C090B205D090B30520E030E040E269
:1030600051E40E94892D7B018C0120E030E84BE384
:1030700055EC0E94C52B88235CF40F2EF0E0EF2E58
:10308000F0E8FF2EFBE30F2FF5EC1F2FF02D14C0FF
:10309000C801B70120E030E84BE355E40E947E2DE3
:1030A000181654F40F2EF0E0EF2EF0E8FF2EFBE39D
:1030B0000F2FF5E41F2FF02DC601B5010E94672CDC
:1030C000A80197010E94FF2A0E94342C6093B0054A
:1030D0007093B1058093B2059093B3051F910F9142
:1030E000FF90EF90DF90CF90BF90AF9008958091C8
:1030F0009605882309F444C0109296058FE096E067
:103100006BE176E00E94D0166093B4057093B5052C
:103110008093B6059093B7056093B0057093B105A1
:103120008093B2059093B3058FE096E06BE176E073
:103130000E9447176093ED057093EE058093EF05AD
:103140009093F0051616170618061906BCF08CE1C8
:1031500097E069E573E00E9411274091ED055091D9
:10316000EE056091EF057091F0058CE197E02AE0A3
:1031700030E00E94CB260E94FC0808950E9429019D
:1031800008958F929F92AF92BF92CF92DF92EF926B
:10319000FF920F931F93CF93DF936091F10470918F
:1031A000F2046E5270407093F2046093F10480E078
:1031B00090E00E94652C20E030E040E05FE30E9458
:1031C000892D0E94342C4B0170937804609377040E
:1031D0006091F3047091F404665270407093F404AB
:1031E0006093F30480E090E00E94652C20E030E0E2
:1031F00040E05FE30E94892D0E94342CEB01709324
:103200007A04609379046091F5047091F604665F26
:103210007F4F7093F6046093F50480E090E00E9485
:10322000652C5B016C0120E030E040E05FE30E9430
:10323000892D0E94342C70934E0560934D0560914A
:10324000670470916804882777FD8095982F0E9405
:10325000672C26E636E646E65FE30E94892D7B0171
:103260008C01C601B5012DEC3CEC4CE45DE30E9401
:10327000892D9B01AC01C801B7010E94FF2A0E9461
:10328000342C0091570410915804601771074CF0CA
:1032900020915F04309160048B01261737070CF4EE
:1032A000890110936804009367046091F70470919A
:1032B000F80480E090E00E94652C20E030E040E0DF
:1032C0005FE30E94892D0E94342C70936A046093FE
:1032D00069049092640480926304D0936604C0935E
:1032E0006504085E1340B801882777FD8095982F04
:1032F0000E94672C20E030E04AE754E40E94CC2B87
:1033000020E030E048EC52E40E94892D7B018C01E2
:1033100020E030E040E050E00E94C52B88235CF4C0
:103320000F2EF0E0EF2EF0E0FF2EF0E00F2FF0E098
:103330001F2FF02D14C0C801B70120E030E048EC89
:1033400052E40E947E2D181654F40F2EF0E0EF2E5A
:10335000F0E0FF2EF8EC0F2FF2E41F2FF02DE0929B
:103360004505F09246050093470510934805DF9107
:10337000CF911F910F91FF90EF90DF90CF90BF9072
:10338000AF909F908F9008951F920F920FB60F925B
:1033900011242F933F934F935F938F939F9340916B
:1033A000840050918500809190064A9B0AC0882332
:1033B000F1F481E08093900650938906409388064B
:1033C00016C08130A1F410929006209188063091A9
:1033D00089064217530720F4CA01805C934601C056
:1033E000CA01821B930B9093F2048093F1048091A5
:1033F00091064B9B0AC08823D9F481E08093910603
:1034000050938B0640938A0613C0813089F4109242
:10341000910680918A0690918B064817590710F4FF
:10342000405C5346481B590B5093F4044093F304FB
:103430009F918F915F914F913F912F910F900FBE70
:103440000F901F9018951F920F920FB60F92112494
:103450002F933F934F935F938F939F93409184005B
:1034600050918500809192061B9B0AC08823F1F43D
:1034700081E08093920650938D0640938C0616C08F
:103480008130A1F41092920620918C0630918D0625
:103490004217530720F4CA01805C934601C0CA0159
:1034A000821B930B9093F6048093F504809193060E
:1034B0001D9B0AC08823D9F481E080939306509322
:1034C0008F0640938E0613C0813089F410929306C4
:1034D00080918E0690918F064817590710F4405C32
:1034E0005346481B590B5093F8044093F7049F919F
:1034F0008F915F914F913F912F910F900FBE0F9041
:103500001F90189580916304909164049093360500
:1035100080933505809165049091660490933805F9
:10352000809337058091690490916A0490933C05DB
:1035300080933B05089588E280936B008CE0809334
:103540006D000895CF93DF9308C00E94C11864E115
:1035500070E080E090E00E94842980916304909163
:103560006404845893403CF480916504909166040F
:103570008458934054F3C0E0D0E064E170E080E010
:1035800090E00E9484290E94C1182196C436D1057A
:10359000A1F7209163043091640440916504509137
:1035A00066048091690490916A0490933C0580932D
:1035B0003B0583E0263B38071CF486EB93E007C00D
:1035C000C90128E08330920714F082E098E09093DC
:1035D00036058093350583E0463B58071CF486EB9F
:1035E00093E007C0CA0128E04330520714F082E09C
:1035F00098E09093380580933705DF91CF91089537
:10360000AF92BF92CF92DF92EF92FF920F931F93F0
:103610005B016C016091350570913605882777FD57
:103620008095982F0E94672C7B018C01C601B50103
:1036300028EA36EC41E351E40E94892D9B01AC015C
:10364000C801B7010E94FF2A0E94342C2091530424
:1036500030915404621773074CF040915B04509111
:103660005C049B01461757070CF49A0183E0283E3F
:1036700038071CF488EE93E007C0C90127E0813DBC
:10368000920714F080ED97E090936C0480936B04A4
:10369000880F991F90938900809388001F910F9144
:1036A000FF90EF90DF90CF90BF90AF900895AF92D2
:1036B000BF92CF92DF92EF92FF920F931F935B0125
:1036C0006C016091370570913805882777FD8095EA
:1036D000982F0E94672C7B018C01C601B50128EA56
:1036E00036EC41E351E40E94892D9B01AC01C801F5
:1036F000B7010E94FF2A0E94342C2091550430917A
:103700005604621773074CF040915D0450915E04BB
:103710009B01461757070CF49A0183E0283E3807AF
:103720001CF488EE93E007C0C90127E0813D9207B1
:1037300014F080ED97E090936E0480936D04880FF1
:10374000991F90938B0080938A001F910F91FF9097
:10375000EF90DF90CF90BF90AF900895AF92BF925F
:10376000CF92DF92EF92FF920F931F935B016C0158
:1037700020E030E044E352EC0E94C52B88235CF447
:103780000F2EF0E0AF2EF0E0BF2EF4E3CF2EF2ECE0
:10379000DF2EF02D14C0C601B50120E030E044E377
:1037A00052E40E947E2D181654F40F2EF0E0AF2E36
:1037B000F0E0BF2EF4E3CF2EF2E4DF2EF02D609187
:1037C0003B0570913C05882777FD8095982F0E94D6
:1037D000672C7B018C01C601B50128EA36EC41E378
:1037E00051E40E94892D9B01AC01C801B7010E94E0
:1037F000FF2A0E94342CE0915904F0915A046E176C
:103800007F074CF02091610430916204FB01261780
:1038100037070CF4F901F0937204E0937104CF01BF
:1038200060E072E00E949A2E9C01CF0160E072E09D
:103830000E949A2E709352056093510536952795F4
:103840008091B40090E02817390711F02093B4005C
:103850001F910F91FF90EF90DF90CF90BF90AF90AE
:103860000895AF92BF92CF92DF92EF92FF920F93A3
:103870001F93A0904505B0904605C0904705D09095
:103880004805C601B50120E030E040E050E00E946C
:10389000C52B88235CF40F2EF0E0AF2EF0E0BF2E96
:1038A000F0E0CF2EF0E0DF2EF02D14C0C601B50100
:1038B00020E030E048EC52E40E947E2D181654F4CB
:1038C0000F2EF0E0AF2EF0E0BF2EF8ECCF2EF2E49A
:1038D000DF2EF02DA0924505B0924605C092470517
:1038E000D0924805E0905704F090580460915F042E
:1038F000709160046E197F09882777FD8095982F55
:103900000E94672C9B01AC01C601B5010E94892D64
:1039100020E030E048EC52E40E94CC2B0E94342C92
:103920008B019C010E0D1F1D1093700400936F04FA
:10393000C80160E072E00E949A2EFC01C80160E0BC
:1039400072E00E949A2E7093500560934F05F69591
:10395000E7958091B30090E08E179F0711F0E093F8
:10396000B3001F910F91FF90EF90DF90CF90BF9029
:10397000AF90089580919B05882301F580913205D1
:103980008823E1F080E090E0A0E0B0E080933D0586
:1039900090933E05A0933F05B09340058093410569
:1039A00090934205A0934305B09344058093450549
:1039B00090934605A0934705B093480560913D0557
:1039C00070913E0580913F05909140050E94001B3B
:1039D00060914105709142058091430590914405A5
:1039E0000E94571B6091490570914A0580914B05D3
:1039F00090914C050E94AE1B0E94311C08951F92AD
:103A00000F920FB60F921124289A449A1092B20086
:103A100010925405109253050F900FBE0F901F90F7
:103A200018951F920F920FB60F9211248F939F93A8
:103A3000809153059091540501969093540580937D
:103A400053059F918F910F900FBE0F901F90189567
:103A50001F920F920FB60F9211242F933F938F93C3
:103A60009F93209153053091540580914F0590917B
:103A700050052817390709F428989F918F913F9195
:103A80002F910F900FBE0F901F9018951F920F92BD
:103A90000FB60F9211242F933F938F939F932091F2
:103AA0005305309154058091510590915205281786
:103AB000390709F444989F918F913F912F910F906E
:103AC0000FBE0F901F90189582EA809380008AE1C4
:103AD0008093810088EB9BE090938900809388001D
:103AE00090938B0080938A0080E49CE990938700F8
:103AF00080938600E8E6F0E084E080838081816046
:103B000080831092B00083E08093B10080E090E069
:103B1000A0E0B0E08093450590934605A09347054B
:103B2000B09348050E94311C60E070E080E090E0B6
:103B30000E94AE1BEFE6F0E080818062808387E028
:103B4000809370000895282F8091840090918500C3
:103B500080529E44C8F3222349F084E061E00E9431
:103B6000182A84E061E00E94572A089584E060E00A
:103B70000E94572A84E060E00E94182A0895EF927C
:103B8000FF920F931F936EE170E080E090E00E943F
:103B9000842981E00E94A31D68E8E62EF12C80E8CC
:103BA0009CE0F701918380830AE810E0F80191839B
:103BB000808360E971E080E090E00E94842980EFDA
:103BC0009AE0F70191838083F8019183808368EC08
:103BD00070E080E090E00E94842988EB9BE0F70190
:103BE00091838083F8019183808380E00E94A31DEC
:103BF0006EE170E080E090E00E9484291F910F91B7
:103C0000FF90EF900895DF92EF92FF920F931F9332
:103C1000DF93CF93CDB7DEB72C970FB6F894DEBF06
:103C20000FBECDBF8CE197E068E673E00E941127DC
:103C30008CE197E06091F5054AE050E00E946D2626
:103C40008E010F5F1F4FC80160E070E00E944E20A0
:103C50008CE197E063E773E00E94112749815A8164
:103C60006B817C818CE197E02AE030E00E948B261A
:103C70008CE197E06BE773E00E9411274D815E8134
:103C80006F8178858CE197E02AE030E00E948B26F6
:103C90008CE197E06BE773E00E94112749855A8514
:103CA0006B857C858CE197E02AE030E00E94CB2692
:103CB00081E0E82EF12CD02E012F45C08D2D902FC4
:103CC000B7010E944E208CE197E06DE773E00E94FF
:103CD00011278CE197E0B7014AE050E00E94DF260F
:103CE0008CE197E06BE773E00E94112749815A81CC
:103CF0006B817C818CE197E02AE030E00E948B268A
:103D00008CE197E06BE773E00E9411274D815E81A3
:103D10006F8178858CE197E02AE030E00E948B2665
:103D20008CE197E06BE773E00E94112749855A8583
:103D30006B857C858CE197E02AE030E00E94CB2601
:103D40000894E11CF11C8091F50590E08E159F050B
:103D50000CF0B4CF2C960FB6F894DEBF0FBECDBFDB
:103D6000CF91DF911F910F91FF90EF90DF90089519
:103D70000F931F930CE117E0C80162E873E00E9403
:103D800011276091630470916404C8014AE050E017
:103D90000E94DF26C8016FE873E00E94112760913E
:103DA000650470916604C8014AE050E00E94DF2675
:103DB000C80164E973E00E94112760916704709163
:103DC0006804C8014AE050E00E94DF26C80169E9A2
:103DD00073E00E9411276091690470916A04C80120
:103DE0004AE050E00E94F2261F910F9108950F9330
:103DF0001F9384E090E00E941D288C010E94A4285B
:103E00002DB73EB7201B310B442737FD4095542F6B
:103E1000B901CA011F910F9108958091E00490911A
:103E20009505882381F080E0992309F481E080934F
:103E30009505882319F08CE061E002C08CE060E019
:103E40000E94572A0895992339F481E080939505BB
:103E50008CE061E00E94572A089587E060E00E94AC
:103E6000572A08951F93182F809132058117D1F09A
:103E7000882311F40E94821A109332051A3039F007
:103E80001A3068F01B3031F01C3049F406C00E9433
:103E90001B2205C00E94152302C00E94442081E01D
:103EA0000E943E0C1F9108950F931F9381E0809311
:103EB000DB050E94450C0E94031E86E060E00E9424
:103EC000572A0E94BF1D86E990E09093EE048093EC
:103ED000ED040E94A21A86E08093DF040E94F90696
:103EE00086E061E00E94572A0E94BF1D0E94BF1D0C
:103EF0000E94BF1D0CE117E0C8016EE973E00E944B
:103F0000FB27C80160EA73E00E94FB271F910F9115
:103F100008950E943D15813011F020E00BC020E093
:103F20008091670490916804805B94400CF021E0DC
:103F300081E02827822F08958CE197E040E056E940
:103F400060E070E00E94E7238CE197E063EB73E0B0
:103F50000E94FB278CE197E00E9498258CE197E076
:103F60006CEB73E00E94FB2782E060E00E94182A5D
:103F700083E060E00E94182A84E060E00E94182A32
:103F800085E060E00E94182A86E061E00E94182A1D
:103F900087E061E00E94182A88E061E00E94182A08
:103FA00089E061E00E94182A8AE061E00E94182AF4
:103FB0008BE060E00E94182A8CE061E00E94182AE1
:103FC0008DE060E00E94182A3C9A86E061E00E9441
:103FD000572A0E942D1F0E944D150E948D070E9496
:103FE0009B1A0E94641D0E94B81E0E946F158CE1EE
:103FF00097E061ED73E00E9411270E94F71EAB016C
:10400000BC018CE197E02AE030E00E9447260E9444
:10401000891F882359F08CE197E06BED73E00E94D3
:10402000FB270E94541F0E94741508958CE197E0AD
:104030006FEE73E00E94FB2781E08093DB05109216
:10404000DF040E941B220E947515089560914207AB
:1040500070914307809144079091450708959C0112
:10406000F999FECF32BD21BDF89A80B508959C0123
:10407000F999FECF1FBA32BD21BD60BD0FB6F894CD
:10408000FA9AF99A0FBE0895ABE1B6E0EFE0F6E0D8
:104090008CE001900D928150E1F708954F925F926C
:1040A0006F927F928F929F92AF92BF92CF92DF9248
:1040B000EF92FF920F931F93CF93DF936C016115E3
:1040C000710509F5F999FECF8EE090E06FE270E29C
:1040D0000E94B200762E672E582E492EF999FECFF7
:1040E00082E190E06FE270E20E94B200B62EA72E4D
:1040F000982E892EF999FECF8CE090E06FE270E265
:104100000E94D8003DC0EB0193E0CC0FDD1F9A95D3
:10411000E1F7660F771FC60FD71F2E96F999FECFCE
:10412000CE016FE270E20E94B200762E672E582E0A
:10413000492E7E010027F7FC0095102F84E090E0C7
:10414000A0E0B0E0E80EF91E0A1F1B1FF999FECF90
:10415000C7016FE270E20E94B200B62EA72E982E21
:10416000892EF999FECF84E090E0A0E0B0E0E80E5F
:10417000F91E0A1F1B1FC7016FE270E20E94D800E0
:104180007C0100E010E0672D762D852D942D2AE02E
:1041900030E040E050E00E946F2ED6016D937D9399
:1041A0008D939C9313976B2D7A2D892D982D0E94BA
:1041B0006F2EF6016483758386839783C801B701E8
:1041C00024E630E040E050E00E946F2ED6011896C1
:1041D0006D937D938D939C931B97C601DF91CF9137
:1041E0001F910F91FF90EF90DF90CF90BF90AF9015
:1041F0009F908F907F906F905F904F900895F99966
:10420000FECFF999FECF12BC11BCF89A80B583FF9E
:1042100009C0209117063091180640911906509157
:104220001A0622C0F999FECF86E190E06FE270E2B3
:104230000E94D800AA2797FDA095BA2FBC01CD01F6
:1042400024E630E040E050E00E946F2E9B01AC017C
:104250008091FF0590910006A0910106B0910206A1
:10426000280F391F4A1F5B1FB901CA0108956F92B9
:104270007F928F929F92AF92BF92CF92DF92EF92F6
:10428000FF920F931F93DF93CF93CDB7DEB72C9799
:104290000FB6F894DEBF0FBECDBFC982DA82EB82C3
:1042A000FC820D831E832F83388749875A876B874B
:1042B0007C8769817A818B819C81ED80FE800F8172
:1042C000188569847A848B849C84AB2899F5F99944
:1042D000FECF2AE030E040E050E00E94CF2E8EE09A
:1042E00090E0BA01A90127E330E20E94EE00F999BB
:1042F000FECFC801B7012AE030E040E050E00E9464
:10430000CF2E82E190E0BA01A90127E330E20E94BA
:10431000EE00F999FECFC401B30124E630E040E09D
:1043200050E00E94CF2E8CE090E0B90147E350E2CC
:104330000E9414012C960FB6F894DEBF0FBECDBFBD
:10434000CF91DF911F910F91FF90EF90DF90CF9071
:10435000BF90AF909F908F907F906F9008956091E5
:104360001B0670911C0680911D0690911E0697FFFA
:1043700007C090958095709561957F4F8F4F9F4FA7
:104380000E94672C20911D0530911E0540911F054C
:10439000509120050E94CC2B25E33AEF4EE85CE3D8
:1043A0000E94892D0E94C92B9B01AC016093A0053E
:1043B0007093A1058093A2059093A30560E070E03F
:1043C00080E89FE30E94CC2B60939C0570939D0531
:1043D00080939E0590939F058FE096E06BE176E0D9
:1043E0000E9447176093F1057093F2058093F305DF
:1043F0009093F4056093ED057093EE058093EF05BF
:104400009093F0058FE096E06BE176E00E94D01685
:104410006093B4057093B5058093B6059093B70586
:104420006093DD057093DE058093DF059093E005D2
:104430000E94381708950F931F93DF93CF93CDB742
:10444000DEB72C970FB6F894DEBF0FBECDBFF9993B
:10445000FECF6091F605F999FECF1FBA8AE090E091
:1044600092BD81BD60BD0FB6F894FA9AF99A0FBE5D
:10447000A3E0B6E0EFE0F6E08CE001900D92815011
:10448000E1F78E010F5F1F4FC80170E00E944E20C0
:10449000ABE1B6E0F8018CE001900D928150E1F7BC
:1044A000809132058B3059F40E94FF2060932306DF
:1044B0007093240680932506909326061CC0809155
:1044C000FF0590910006A0910106B091020620918F
:1044D0002306309124064091250650912606820F2E
:1044E000931FA41FB51F8093230690932406A093C7
:1044F0002506B093260620911706309118064091A4
:10450000190650911A0620932706309328064093E7
:10451000290650932A068091230690912406A091A3
:104520002506B0912606821B930BA40BB50B809336
:104530002B0690932C06A0932D06B0932E0683E0B5
:104540000E9478150E94AF211092E2051092E105B9
:104550001092E4051092E3052C960FB6F894DEBF96
:104560000FBECDBFCF91DF911F910F910895AF92F4
:10457000BF92CF92DF92EF92FF920F931F93DF9340
:10458000CF93CDB7DEB72C970FB6F894DEBF0FBE32
:10459000CDBF8CE197E062E274E00E94FB27A7EFB9
:1045A000B5E0EFE0F6E08CE001900D928150E1F78C
:1045B000CE010196C090F705D090F805E090F9057E
:1045C000F090FA050091FB051091FC052091FD0586
:1045D0003091FE054091FF05509100066091010663
:1045E00070910206AA24BB240E943721A3E0B6E002
:1045F000EFE0F6E08CE001900D928150E1F781E070
:104600008093F6050E941B222C960FB6F894DEBF0D
:104610000FBECDBFCF91DF911F910F91FF90EF9013
:10462000DF90CF90BF90AF9008951092F6050E9452
:104630001B220E94FF206093230670932406809320
:104640002506909326060895809132058B3011F44B
:104650008CE00EC08E3081F18A3071F58091F605C4
:104660008F5F8093F6059091F505981720F48BE005
:104670000E94321F089540919705509198056091CE
:10468000990570919A058CE197E02AE030E00E944C
:104690008B268CE197E06CE274E00E9411278CE19C
:1046A00097E06091F6054AE050E00E946D2682E0B6
:1046B0000E9478150E941B22089508951F920F9260
:1046C0000FB60F9211242F933F934F938F939F9385
:1046D000EF93FF938091C00082FD1DC04091C60002
:1046E0002091D4063091D5062F5F3F4F2F73307045
:1046F0008091D6069091D7062817390771F0E0917E
:10470000D406F091D506EC56F94F40833093D50688
:104710002093D40602C08091C600FF91EF919F9133
:104720008F914F913F912F910F900FBE0F901F903F
:104730001895E0912807F0912907E05CFF4F8191DF
:10474000919120813181821B930B8F739070892B03
:1047500011F00E945D2308951F920F920FB60F92E1
:1047600011242F933F938F939F93EF93FF93209167
:1047700018073091190780911A0790911B07281785
:10478000390731F48091C1008F7D8093C10014C03E
:10479000E0911A07F0911B07E852F94F20818091B0
:1047A0001A0790911B0701968F73907090931B07C7
:1047B00080931A072093C600FF91EF919F918F91EC
:1047C0003F912F910F900FBE0F901F901895AF92B1
:1047D000BF92DF92EF92FF920F931F93CF93DF93DD
:1047E000EC017A018B01DD24403081EE580780E036
:1047F000680780E0780711F0DD24D39491E0A92EBA
:10480000B12CEC89FD89DD2069F0C50108A002C04A
:10481000880F991F0A94E2F7808360E079E08DE3C6
:1048200090E005C0108260E874E88EE190E0A80195
:1048300097010E94AD2E2150304040405040569587
:1048400047953795279580E12030380720F0DD2007
:1048500011F0DD24D6CFE889F9893083EA89FB8914
:10486000208319A2EE89FF89408121E030E0C9014F
:104870000C8C02C0880F991F0A94E2F7482B4083E2
:10488000EE89FF894081C9010D8C02C0880F991FF4
:104890000A94E2F7482B4083EE89FF894081C901E1
:1048A0000E8C02C0880F991F0A94E2F7482B4083B0
:1048B000EE89FF8980810F8C02C0220F331F0A947A
:1048C000E2F7209528232083DF91CF911F910F914C
:1048D000FF90EF90DF90BF90AF900895DC011C96A1
:1048E000ED91FC911D97E05CFF4F2191319180810A
:1048F0009181281B390B2F733070C9010895DC0199
:104900001C96ED91FC911D97E05CFF4F2081318159
:10491000E054F040DF01AE5BBF4F8D919C91119749
:104920002817390719F42FEF3FEF07C08D919C919D
:10493000E80FF91F8081282F30E0C9010895DC01BC
:104940001C96ED91FC911D97E05CFF4F2081318119
:10495000E054F040DF01AE5BBF4F8D919C91119709
:104960002817390719F42FEF3FEF10C08D919C9154
:104970001197E80FF91F20818D919C911197019655
:104980008F73907011969C938E9330E0C9010895B7
:10499000DC0191968C919197882339F05496ED9192
:1049A000FC915597808186FFF9CF91961C920895CE
:1049B000CF93DF93EC01EE85FF85E05CFF4F208114
:1049C0003181E054F0402F5F3F4F2F733070DF0193
:1049D000AE5BBF4F8D919C91119728173907D1F38A
:1049E000E05CFF4F80819181E054F040E80FF91FB7
:1049F0006083EE85FF85E05CFF4F31832083EE8985
:104A0000FF89208181E090E00F8C02C0880F991F00
:104A10000A94E2F7282B208381E089A3EC89FD89A1
:104A200080818064808381E090E0DF91CF91089560
:104A300010921F0710921E0788EE93E0A0E0B0E0EE
:104A40008093200790932107A0932207B093230718
:104A500085E295E090931D0780931C0784E996E01A
:104A6000909329078093280788ED96E090932B0771
:104A700080932A0785EC90E090932D0780932C0774
:104A800084EC90E090932F0780932E0780EC90E0C9
:104A9000909331078093300781EC90E09093330737
:104AA0008093320782EC90E090933507809334072F
:104AB00086EC90E0909337078093360784E08093EC
:104AC000380783E08093390787E080933A0785E0D1
:104AD00080933B0781E080933C070895CF92DF925B
:104AE000EF92FF920F931F93CF93DF937C016B01A3
:104AF0008A01C0E0D0E00FC0D6016D916D01D701F1
:104B0000ED91FC910190F081E02DC7010995C80F4E
:104B1000D91F015010400115110571F7CE01DF9129
:104B2000CF911F910F91FF90EF90DF90CF9008955C
:104B3000EF92FF920F931F938C01DC01ED91FC919A
:104B40000190F081E02D6DE009957C01D801ED9197
:104B5000FC910190F081E02DC8016AE009959C016B
:104B60002E0D3F1DC9011F910F91FF90EF900895E9
:104B7000CF93DF93EC016115710519F420E030E06B
:104B80000FC0DB010D900020E9F71197A61BB70BB2
:104B9000E881F9810280F381E02DAD0109959C0146
:104BA000C901DF91CF9108954F925F927F928F92CA
:104BB0009F92AF92BF92CF92DF92EF92FF920F93AC
:104BC0001F93DF93CF93CDB7DEB7A1970FB6F894BD
:104BD000DEBF0FBECDBF2C01742ECB01223008F4F6
:104BE0002AE019A231E2C32ED12CCC0EDD1E822E7A
:104BF0009924AA24BB24672D752FA50194010E9436
:104C0000AD2E79018A01C801B701A50194010E9466
:104C10006F2E472D461B0894C108D1084A3014F462
:104C2000405D01C0495CF6014083E114F1040105D7
:104C3000110521F07E2C5F2DC801DDCFC201B60128
:104C40000E94B825A1960FB6F894DEBF0FBECDBF67
:104C5000CF91DF911F910F91FF90EF90DF90CF9058
:104C6000BF90AF909F908F907F905F904F900895EE
:104C7000DC012115310541F4ED91FC910190F081A9
:104C8000E02D642F099508950E94D4250895EF9290
:104C9000FF920F931F937C010E9438268C01C7015D
:104CA0000E9498259C01200F311FC9011F910F916F
:104CB000FF90EF900895EF92FF920F931F939A0148
:104CC000E62EFF2400E010E0B801A7010E9438267C
:104CD0001F910F91FF90EF900895CF92DF92EF9286
:104CE000FF920F931F936C01E62E9A01FF2400E0C0
:104CF00010E0B801A7010E9438268C01C6010E946D
:104D00009825080F191FC8011F910F91FF90EF9070
:104D1000DF90CF900895CF92DF92EF92FF920F93A2
:104D20001F93CF93DF93EC016A017B0121153105BD
:104D300041F4E881F9810190F081E02D642F09951B
:104D40001FC02A303105D1F477FF17C0E881F981FF
:104D50000190F081E02D6DE209958C0144275527E3
:104D6000BA014C195D096E097F09CE012AE00E9443
:104D7000D4259801280F391F04C02AE00E94D425A9
:104D80009C01C901DF91CF911F910F91FF90EF908E
:104D9000DF90CF900895EF92FF920F931F937C01C5
:104DA0000E948B268C01C7010E9498259C01200F30
:104DB000311FC9011F910F91FF90EF900895EF925D
:104DC000FF920F931F937B019A010027F7FC009538
:104DD000102FB801A7010E948B261F910F91FF9001
:104DE000EF900895CF92DF92EF92FF920F931F936F
:104DF0006C017B019A010027F7FC0095102FB80188
:104E0000A7010E948B268C01C6010E949825080FDD
:104E1000191FC8011F910F91FF90EF90DF90CF9065
:104E200008950E94B82508957F928F929F92AF9225
:104E3000BF92CF92DF92EF92FF920F931F93CF9387
:104E4000DF934C017A018B01722ECB01BA01A801CC
:104E500097010E94432E882321F0C40165E474E089
:104E600021C0C0E0D0E057016801E894D7F8C6013E
:104E7000B5012FEF3FEF4FE75FE70E94432E8823F6
:104E800051F4C601B5012FEF3FEF4FE75FE70E94F6
:104E9000C52B181614F0C1E0D0E0219739F0C401F9
:104EA00069E474E00E94B825EC0193C0C801B70121
:104EB0002FEF3FEF4FE75FE40E947E2D181654F06E
:104EC000C801B7012FEF3FEF4FE75FEC0E94C52B02
:104ED000882324F4C4016DE474E0E4CFC801B70171
:104EE00020E030E040E050E00E94C52B87FD03C089
:104EF000C0E0D0E00EC0D401ED91FC910190F081B2
:104F0000E02DC4016DE20995EC0117FB109517F92E
:104F1000109520E030E040E05FE3DD240BC0CA01E3
:104F2000B90120E030E040E251E40E94CC2B9B012B
:104F3000AC01D394D71498F3C801B7010E94FF2A9B
:104F40005B016C010E94392C7B018C01C401B8010A
:104F5000A7012AE030E00E943826C80FD91F772029
:104F600039F0C40161E574E00E94B825C80FD91F6B
:104F7000C801B7010E94652C9B01AC01C601B501B7
:104F80000E94FE2A24C020E030E040E251E40E946A
:104F9000892D7B018C010E94342C5B016C01CC2497
:104FA000B7FCC094DC2CC401B601A5012AE030E0B6
:104FB0000E948B26C80FD91FC601B5010E94672C1D
:104FC0009B01AC01C801B7010E94FE2A7A947720A8
:104FD000D1F6CE01DF91CF911F910F91FF90EF900D
:104FE000DF90CF90BF90AF909F908F907F9008956B
:104FF0000E9414270895EF92FF920F931F937C0154
:105000000E94B8258C01C7010E949825080F191F1E
:10501000C8011F910F91FF90EF900895CF93DF93F8
:105020000E94DD290E94AA06C9E9D3E20E94700607
:105030002097E1F30E949923F9CF0F931F93CF9309
:10504000DF93BC018230910510F462E070E0E091E2
:105050004707F0914807A0E0B0E040E050E024C0EE
:105060008081918186179707D0F08617970771F492
:1050700082819381109729F013969C938E931297B7
:105080002CC0909348078093470727C041155105CE
:1050900019F08417950718F4EF018D01AC01DF01B9
:1050A000828193819C01F9013097D1F64115510518
:1050B000F9F0CA01861B970B8430910580F48A8130
:1050C0009B810115110521F0F8019383828304C0AF
:1050D0009093480780934707FE0132962FC0FE0148
:1050E000E80FF91F6193719302979983888326C013
:1050F0008DB79EB7885790402091F9043091FA04FB
:1051000028173907C8F4AC01421B530B4617570741
:1051100098F0CB0102964817590770F0820F931F41
:105120009093FA048093F9049093FC048093FB0419
:10513000F9016193719302C0E0E0F0E0CF01DF91EB
:10514000CF911F910F910895CF93DF939C0100970A
:1051500009F48FC0EC0122971B821A8260914707E5
:10516000709148076115710581F488819981820FDA
:10517000931F2091F9043091FA042817390739F563
:10518000D093FA04C093F90474C0DB0140E050E00E
:10519000AC17BD0708F1BB83AA83FE0121913191B1
:1051A000E20FF31FAE17BF0779F48D919C91119711
:1051B000280F391F2E5F3F4F3983288312968D9118
:1051C0009C9113979B838A834115510571F4D09369
:1051D0004807C09347074DC012968D919C91139735
:1051E000AD01009711F0DC01D3CFDA011396DC9307
:1051F000CE931297FA0121913191E20FF31FCE174E
:10520000DF0769F488819981280F391F2E5F3F4F8E
:10521000FA01318320838A819B8193838283E0E03A
:10522000F0E0DB0112968D919C911397009719F095
:10523000BC01FD01F6CFAB014E5F5F4FDB018D91ED
:105240009C91840F951F2091F9043091FA0428173E
:10525000390779F4309729F41092480710924707DC
:1052600002C013821282425050405093FA0440937D
:10527000F904DF91CF9108951F920F920FB60F920C
:1052800011242F933F938F939F93AF93BF9380915C
:10529000420790914307A0914407B0914507309190
:1052A00046070196A11DB11D232F2D5F2D3720F03C
:1052B0002D570196A11DB11D2093460780934207EB
:1052C00090934307A0934407B093450780913E070E
:1052D00090913F07A0914007B09141070196A11D11
:1052E000B11D80933E0790933F07A0934007B09372
:1052F0004107BF91AF919F918F913F912F910F9057
:105300000FBE0F901F9018959B01AC017FB7F894CA
:1053100080913E0790913F07A0914007B0914107CF
:1053200066B5A89B05C06F3F19F00196A11DB11D80
:105330007FBFBA2FA92F982F8827860F911DA11DF7
:10534000B11D62E0880F991FAA1FBB1F6A95D1F794
:10535000BC012DC0FFB7F89480913E0790913F07A4
:10536000A0914007B0914107E6B5A89B05C0EF3F6B
:1053700019F00196A11DB11DFFBFBA2FA92F982FBB
:1053800088278E0F911DA11DB11DE2E0880F991F86
:10539000AA1FBB1FEA95D1F7861B970B885E934027
:1053A000C8F2215030404040504068517C4F211598
:1053B00031054105510571F60895789484B58260F0
:1053C00084BD84B5816084BD85B5826085BD85B5A9
:1053D000816085BDEEE6F0E0808181608083E1E858
:1053E000F0E0108280818260808380818160808390
:1053F000E0E8F0E0808181608083E1EBF0E0808193
:1054000084608083E0EBF0E0808181608083EAE764
:10541000F0E08081846080838081826080838081ED
:10542000816080838081806880831092C1000895AC
:10543000CF93DF93482F50E0CA018B519F4FFC015F
:1054400034914F525F4FFA018491882369F190E0C3
:10545000880F991FFC01ED54FF4FA591B491FC01F9
:10546000E354FF4FC591D491662351F42FB7F894BC
:105470008C91932F909589238C93888189230BC0DD
:10548000623061F42FB7F8948C91932F9095892313
:105490008C938881832B88832FBF06C09FB7F89495
:1054A0008C91832B8C939FBFDF91CF910895482FD0
:1054B00050E0CA0187509F4FFC012491CA018B51D3
:1054C0009F4FFC0194914F525F4FFA013491332367
:1054D00009F440C0222351F1233071F0243028F424
:1054E0002130A1F0223011F514C02630B1F0273060
:1054F000C1F02430D9F404C0809180008F7703C0BC
:10550000809180008F7D8093800010C084B58F775C
:1055100002C084B58F7D84BD09C08091B0008F77B3
:1055200003C08091B0008F7D8093B000E32FF0E046
:10553000EE0FFF1FE354FF4FA591B4912FB7F894DE
:10554000662321F48C919095892302C08C91892B3C
:105550008C932FBF0895682F70E0CB0187509F4F29
:10556000FC012491CB018B519F4FFC0144916F5260
:105570007F4FFB019491992319F420E030E03CC067
:10558000222351F1233071F0243028F42130A1F08E
:10559000223011F514C02630B1F02730C1F024308C
:1055A000D9F404C0809180008F7703C0809180007F
:1055B0008F7D8093800010C084B58F7702C084B542
:1055C0008F7D84BD09C08091B0008F7703C080912A
:1055D000B0008F7D8093B000892F90E0880F991FD5
:1055E00089539F4FFC01A591B4918C9120E030E04C
:1055F000842311F021E030E0C90108955058BB2701
:10560000AA270ED030C2F0D130F0F5D120F031F41D
:105610009F3F11F41EF4C0C10EF4E095E7FBB6C144
:10562000E92F43D280F3BA176207730784079507FF
:1056300018F071F49EF55BC20EF4E0950B2EBA2FB4
:10564000A02D0B01B90190010C01CA01A001112488
:10565000FF27591B99F0593F50F4503E68F11A1634
:10566000F040A22F232F342F4427585FF3CF4695C5
:1056700037952795A795F0405395C9F77EF41F16E7
:10568000BA0B620B730B840BBAF09150A1F0FF0FB1
:10569000BB1F661F771F881FC2F70EC0BA0F621F9D
:1056A000731F841F48F4879577956795B795F7958D
:1056B0009E3F08F0B3CF9395880F08F09927EE0F1F
:1056C00097958795089590D158F080E891E009F476
:1056D0009EEF91D128F040E851E059F45EEF09C007
:1056E0005BC105C2E92FE078E0D168F3092E052AF5
:1056F000C1F3261737074807590738F00E2E07F869
:10570000E02569F0E025E0640AC0EF6307F8009443
:1057100007FADB01B9019D01DC01CA01AD01EF937C
:105720004AD0A1D10AD05F91552331F02BED3FE053
:1057300049E450FD49EC63CF0895DF93DD27B92F8D
:10574000BF7740E85FE31616170648075B0710F4BB
:10575000D92FD8D19F938F937F936F9391D2E8E6FF
:10576000F0E01DD180D12F913F914F915F91DDD11C
:10577000DD2349F09058A2EA2AED3FE049EC5FE3CF
:10578000D0785D274DDFDF916EC1DCD008F481E079
:10579000089539D1E39578C10CD065C12CD140F082
:1057A00023D130F021F45F3F19F0F0C05111A0C1B6
:1057B000F3C07BD198F39923C9F35523B1F3951B1B
:1057C000550BBB27AA2762177307840738F09F5F22
:1057D0005F4F220F331F441FAA1FA9F333D00E2E91
:1057E0003AF0E0E830D091505040E695001CCAF7FE
:1057F00029D0FE2F27D0660F771F881FBB1F2617C3
:1058000037074807AB07B0E809F0BB0B802DBF0195
:10581000FF2793585F4F2AF09E3F510568F0B6C0AE
:1058200067C15F3FECF3983EDCF38695779567950B
:10583000B795F7959F5FC9F7880F911D9695879546
:1058400097F90895E1E0660F771F881FBB1F621765
:1058500073078407BA0720F0621B730B840BBA0B23
:10586000EE1F88F7E095089504D06894B11140C107
:10587000089523D188F09F5790F0B92F9927B751F9
:10588000A0F0D1F0660F771F881F991F1AF0BA9504
:10589000C9F712C0B13081F02AD1B1E0089527C113
:1058A000672F782F8827B85F39F0B93FCCF38695FA
:1058B00077956795B395D9F73EF490958095709557
:1058C00061957F4F8F4F9F4F0895E89409C097FBD4
:1058D0003EF490958095709561957F4F8F4F9F4FC7
:1058E0009923A9F0F92F96E9BB279395F69587950B
:1058F00077956795B795F111F8CFFAF4BB0F11F4CE
:1059000060FF1BC06F5F7F4F8F4F9F4F16C0882374
:1059100011F096E911C0772321F09EE8872F762FAA
:1059200005C0662371F096E8862F70E060E02AF0EB
:105930009A95660F771F881FDAF7880F96958795D7
:1059400097F90895990F0008550FAA0BE0E8FEEFAC
:1059500016161706E807F907C0F012161306E40733
:10596000F50798F0621B730B840B950B39F40A262C
:1059700061F0232B242B252B21F408950A2609F40A
:10598000A140A6958FEF811D811D089597F99F670E
:1059900080E870E060E008959FEF80EC0895DF9369
:1059A000CF931F930F93FF92EF92DF927B018C01B5
:1059B000689405C0DA2EEF01B8D0FE01E894A591F5
:1059C0002591359145915591AEF3EF0129DEFE0108
:1059D0009701A801DA9479F7DF90EF90FF900F918B
:1059E0001F91CF91DF91089500240A94161617068F
:1059F00018060906089500240A94121613061406C0
:105A000005060895C9CF59D0E8F3E894EFEFBB2716
:105A10003FE048EC5FE76B3D73078407950708F1AB
:105A2000FF279F57B25A6A4D7F40894CF04032F4AD
:105A3000BE556542704F8643FF4F0894EE1F91504C
:105A400030F0BB0F661F771F881FFF1FEBCF9EE74D
:105A5000882332F0BB0F661F771F881F9A95C1F706
:105A60009395E09514C1092E0394000C11F488233A
:105A700052F0BB0F40F4BF2B11F460FF04C06F5F06
:105A80007F4F8F4F9F4F0895EF93E0FF06C0A2EA2C
:105A90002AED3FE049EC5FEBC3DDE5DF0F900394B7
:105AA00001FC9058E5E9F0E009C157FD9058440F1A
:105AB000551F59F05F3F71F04795880F97FB991F6D
:105AC00061F09F3F79F0879508951216130614062A
:105AD000551FF2CF4695F1DF08C0161617061806B7
